{
	"data": {
		"bytecode": {
			"linkReferences": {},
			"object": "6080604052600160005560018055633b9aca00600255670de0b6b3a764000060035534801561002d57600080fd5b5061024c8061003d6000396000f3fe608060405234801561001057600080fd5b506004361061007d5760003560e01c80637e0c8f561161005b5780637e0c8f56146100dc57806397e6852e146100fa578063a1b1df9c14610118578063b685bcfa146101365761007d565b8063293f1d74146100825780633173d589146100a057806357521aa4146100be575b600080fd5b61008a610154565b60405161009791906101c5565b60405180910390f35b6100a861015a565b6040516100b591906101fb565b60405180910390f35b6100c661016e565b6040516100d391906101c5565b60405180910390f35b6100e4610174565b6040516100f191906101c5565b60405180910390f35b61010261017a565b60405161010f91906101c5565b60405180910390f35b610120610180565b60405161012d91906101fb565b60405180910390f35b61013e61019c565b60405161014b91906101fb565b60405180910390f35b60035481565b6000670de0b6b3a764000060035414905090565b60005481565b60015481565b60025481565b600060016000541480156101975750600154600054145b905090565b6000633b9aca0060025414905090565b6000819050919050565b6101bf816101ac565b82525050565b60006020820190506101da60008301846101b6565b92915050565b60008115159050919050565b6101f5816101e0565b82525050565b600060208201905061021060008301846101ec565b9291505056fea264697066735822122030b6e50bb8c88753a341adc6ffd8e292f0864eef17092c428e365ce8da4a70fc64736f6c634300080b0033",
			"opcodes": "PUSH1 0x80 PUSH1 0x40 MSTORE PUSH1 0x1 PUSH1 0x0 SSTORE PUSH1 0x1 DUP1 SSTORE PUSH4 0x3B9ACA00 PUSH1 0x2 SSTORE PUSH8 0xDE0B6B3A7640000 PUSH1 0x3 SSTORE CALLVALUE DUP1 ISZERO PUSH2 0x2D JUMPI PUSH1 0x0 DUP1 REVERT JUMPDEST POP PUSH2 0x24C DUP1 PUSH2 0x3D PUSH1 0x0 CODECOPY PUSH1 0x0 RETURN INVALID PUSH1 0x80 PUSH1 0x40 MSTORE CALLVALUE DUP1 ISZERO PUSH2 0x10 JUMPI PUSH1 0x0 DUP1 REVERT JUMPDEST POP PUSH1 0x4 CALLDATASIZE LT PUSH2 0x7D JUMPI PUSH1 0x0 CALLDATALOAD PUSH1 0xE0 SHR DUP1 PUSH4 0x7E0C8F56 GT PUSH2 0x5B JUMPI DUP1 PUSH4 0x7E0C8F56 EQ PUSH2 0xDC JUMPI DUP1 PUSH4 0x97E6852E EQ PUSH2 0xFA JUMPI DUP1 PUSH4 0xA1B1DF9C EQ PUSH2 0x118 JUMPI DUP1 PUSH4 0xB685BCFA EQ PUSH2 0x136 JUMPI PUSH2 0x7D JUMP JUMPDEST DUP1 PUSH4 0x293F1D74 EQ PUSH2 0x82 JUMPI DUP1 PUSH4 0x3173D589 EQ PUSH2 0xA0 JUMPI DUP1 PUSH4 0x57521AA4 EQ PUSH2 0xBE JUMPI JUMPDEST PUSH1 0x0 DUP1 REVERT JUMPDEST PUSH2 0x8A PUSH2 0x154 JUMP JUMPDEST PUSH1 0x40 MLOAD PUSH2 0x97 SWAP2 SWAP1 PUSH2 0x1C5 JUMP JUMPDEST PUSH1 0x40 MLOAD DUP1 SWAP2 SUB SWAP1 RETURN JUMPDEST PUSH2 0xA8 PUSH2 0x15A JUMP JUMPDEST PUSH1 0x40 MLOAD PUSH2 0xB5 SWAP2 SWAP1 PUSH2 0x1FB JUMP JUMPDEST PUSH1 0x40 MLOAD DUP1 SWAP2 SUB SWAP1 RETURN JUMPDEST PUSH2 0xC6 PUSH2 0x16E JUMP JUMPDEST PUSH1 0x40 MLOAD PUSH2 0xD3 SWAP2 SWAP1 PUSH2 0x1C5 JUMP JUMPDEST PUSH1 0x40 MLOAD DUP1 SWAP2 SUB SWAP1 RETURN JUMPDEST PUSH2 0xE4 PUSH2 0x174 JUMP JUMPDEST PUSH1 0x40 MLOAD PUSH2 0xF1 SWAP2 SWAP1 PUSH2 0x1C5 JUMP JUMPDEST PUSH1 0x40 MLOAD DUP1 SWAP2 SUB SWAP1 RETURN JUMPDEST PUSH2 0x102 PUSH2 0x17A JUMP JUMPDEST PUSH1 0x40 MLOAD PUSH2 0x10F SWAP2 SWAP1 PUSH2 0x1C5 JUMP JUMPDEST PUSH1 0x40 MLOAD DUP1 SWAP2 SUB SWAP1 RETURN JUMPDEST PUSH2 0x120 PUSH2 0x180 JUMP JUMPDEST PUSH1 0x40 MLOAD PUSH2 0x12D SWAP2 SWAP1 PUSH2 0x1FB JUMP JUMPDEST PUSH1 0x40 MLOAD DUP1 SWAP2 SUB SWAP1 RETURN JUMPDEST PUSH2 0x13E PUSH2 0x19C JUMP JUMPDEST PUSH1 0x40 MLOAD PUSH2 0x14B SWAP2 SWAP1 PUSH2 0x1FB JUMP JUMPDEST PUSH1 0x40 MLOAD DUP1 SWAP2 SUB SWAP1 RETURN JUMPDEST PUSH1 0x3 SLOAD DUP2 JUMP JUMPDEST PUSH1 0x0 PUSH8 0xDE0B6B3A7640000 PUSH1 0x3 SLOAD EQ SWAP1 POP SWAP1 JUMP JUMPDEST PUSH1 0x0 SLOAD DUP2 JUMP JUMPDEST PUSH1 0x1 SLOAD DUP2 JUMP JUMPDEST PUSH1 0x2 SLOAD DUP2 JUMP JUMPDEST PUSH1 0x0 PUSH1 0x1 PUSH1 0x0 SLOAD EQ DUP1 ISZERO PUSH2 0x197 JUMPI POP PUSH1 0x1 SLOAD PUSH1 0x0 SLOAD EQ JUMPDEST SWAP1 POP SWAP1 JUMP JUMPDEST PUSH1 0x0 PUSH4 0x3B9ACA00 PUSH1 0x2 SLOAD EQ SWAP1 POP SWAP1 JUMP JUMPDEST PUSH1 0x0 DUP2 SWAP1 POP SWAP2 SWAP1 POP JUMP JUMPDEST PUSH2 0x1BF DUP2 PUSH2 0x1AC JUMP JUMPDEST DUP3 MSTORE POP POP JUMP JUMPDEST PUSH1 0x0 PUSH1 0x20 DUP3 ADD SWAP1 POP PUSH2 0x1DA PUSH1 0x0 DUP4 ADD DUP5 PUSH2 0x1B6 JUMP JUMPDEST SWAP3 SWAP2 POP POP JUMP JUMPDEST PUSH1 0x0 DUP2 ISZERO ISZERO SWAP1 POP SWAP2 SWAP1 POP JUMP JUMPDEST PUSH2 0x1F5 DUP2 PUSH2 0x1E0 JUMP JUMPDEST DUP3 MSTORE POP POP JUMP JUMPDEST PUSH1 0x0 PUSH1 0x20 DUP3 ADD SWAP1 POP PUSH2 0x210 PUSH1 0x0 DUP4 ADD DUP5 PUSH2 0x1EC JUMP JUMPDEST SWAP3 SWAP2 POP POP JUMP INVALID LOG2 PUSH5 0x6970667358 0x22 SLT KECCAK256 ADDRESS 0xB6 0xE5 SIGNEXTEND 0xB8 0xC8 DUP8 MSTORE8 LOG3 COINBASE 0xAD 0xC6 SELFDESTRUCT 0xD8 0xE2 SWAP3 CREATE DUP7 0x4E 0xEF OR MULMOD 0x2C TIMESTAMP DUP15 CALLDATASIZE 0x5C 0xE8 0xDA 0x4A PUSH17 0xFC64736F6C634300080B00330000000000 "
		},
		"gasEstimates": {
			"creation": {
				"codeDepositCost": "117600",
				"executionCost": "88589",
				"totalCost": "206189"
			},
			"external": {
				"oneEhter()": "2430",
				"oneGWei()": "2451",
				"oneWei1()": "2474",
				"oneWei2()": "2429",
				"testOneEther()": "2472",
				"testOneGWei()": "2515",
				"testOneWei()": "6724"
			}
		},
		"methodIdentifiers": {
			"oneEhter()": "293f1d74",
			"oneGWei()": "97e6852e",
			"oneWei1()": "57521aa4",
			"oneWei2()": "7e0c8f56",
			"testOneEther()": "3173d589",
			"testOneGWei()": "b685bcfa",
			"testOneWei()": "a1b1df9c"
		}
	},
	"abi": [
		{
			"inputs": [],
			"name": "oneEhter",
			"outputs": [
				{
					"internalType": "uint256",
					"name": "",
					"type": "uint256"
				}
			],
			"stateMutability": "view",
			"type": "function"
		},
		{
			"inputs": [],
			"name": "oneGWei",
			"outputs": [
				{
					"internalType": "uint256",
					"name": "",
					"type": "uint256"
				}
			],
			"stateMutability": "view",
			"type": "function"
		},
		{
			"inputs": [],
			"name": "oneWei1",
			"outputs": [
				{
					"internalType": "uint256",
					"name": "",
					"type": "uint256"
				}
			],
			"stateMutability": "view",
			"type": "function"
		},
		{
			"inputs": [],
			"name": "oneWei2",
			"outputs": [
				{
					"internalType": "uint256",
					"name": "",
					"type": "uint256"
				}
			],
			"stateMutability": "view",
			"type": "function"
		},
		{
			"inputs": [],
			"name": "testOneEther",
			"outputs": [
				{
					"internalType": "bool",
					"name": "",
					"type": "bool"
				}
			],
			"stateMutability": "view",
			"type": "function"
		},
		{
			"inputs": [],
			"name": "testOneGWei",
			"outputs": [
				{
					"internalType": "bool",
					"name": "",
					"type": "bool"
				}
			],
			"stateMutability": "view",
			"type": "function"
		},
		{
			"inputs": [],
			"name": "testOneWei",
			"outputs": [
				{
					"internalType": "bool",
					"name": "",
					"type": "bool"
				}
			],
			"stateMutability": "view",
			"type": "function"
		}
	]
}